:020000041000EA
:1000000000B5324B212058609868022188439860DF
:10001000D860186158612E4B002199600221596106
:100020000121F02299502B49196001219960352056
:1000300000F044F80222904214D00621196600F024
:1000400034F8196E01211966002018661A6600F04E
:100050002CF8196E196E196E052000F02FF8012189
:100060000842F9D1002199601B49196000215960AB
:100070001A491B48016001219960EB211966A021F2
:10008000196600F012F800219960164914480160C1
:100090000121996001BC002800D000471248134993
:1000A000086003C880F30888084703B5996A0420EC
:1000B0000142FBD001200142F8D103BD02B5186610
:1000C0001866FFF7F2FF186E186E02BD00000240BE
:1000D000000000180000070000035F00212200005C
:1000E000F4000018222000A00001001008ED00E03C
:1000F00000000000000000000000000074B24E7A12
:1001000000200420F7010010C3010010C5010010F9
:10011000C1010010C1010010C1010010C101001097
:10012000C1010010C1010010C1010010C701001081
:10013000C1010010C1010010C9010010CB01001065
:10014000CD010010CD010010CD010010CD01001037
:10015000CD010010CD010010CD010010CD01001027
:10016000CD010010CD010010CD010010CD01001017
:10017000CD010010CD010010CD010010CD01001007
:10018000CD010010CD010010CD010010CD010010F7
:10019000CD010010CD010010CD010010CD010010E7
:1001A000CD010010CD010010CD010010CD010010D7
:1001B000CD010010CD010010CD010010CD010010C7
:1001C00000BE00BE00BE00BE00BE00BEEFF3058054
:1001D000103800BEF2EB8871EC490510104A05108A
:1001E0003802001090A31AE71E481F49086006C88D
:1001F00081F3088810471D480068002801D019487D
:10020000F3E70DA40ECC002902D000F012F8F9E7B4
:100210001749184A002000E001C19142FCD116495B
:100220008847164988471649884700BEFDE701C937
:1002300001C29A42FBD37047104A0510E00000202B
:10024000A8180020D8610510000004200000042038
:10025000D8610510001004200010042000000000E8
:10026000704700000000000008ED00E0000000D032
:10027000A8180020D0E300208D530010D5020010F4
:1002800085530010F8B5C04606480749091A8B1077
:10029000C90FC91810B5491003D0044B002B00D06A
:1002A000984710BDA8180020A818002000000000E2
:1002B000054B10B5002B03D00449054800E000BFF2
:1002C000FFF7E2FF10BDC046000000006CA3002055
:1002D000FCA40110F0B5DE4645464E465746E0B553
:1002E000A14CA54405F084F9A049A14819F022FACF
:1002F00003210E2001F042FC03210F2001F03EFCFF
:10030000002201210E2001F053FC002201210F20C8
:1003100001F04EFC01F0E4FAFA20800002F0AAFCA1
:1003200080220021D20022A803F03EFC002122A856
:1003300001F002FB0B2001F0C1FC0D2001F0BEFC1E
:10034000D02380221B06984612015A628023414620
:10035000884C9B0112A84B628A618B6122000300CA
:1003600062CA62C322CA22C3052101F0D5FB00F094
:1003700011FA8149050000F00DFC804802F07AFC7A
:1003800012F068FD002800D0ECE012F0F3FC7C488D
:1003900005F07EF917A8230002002433C2CBC2C2A5
:1003A00042CB42C2052101F0B7FBFA20C00002F0A7
:1003B00061FC74497448754B754A12F0E9FC0028D9
:1003C0007FD1744805F064F973497448744B085C34
:1003D000CB5C029073480EAC085C734A0190734882
:1003E0006F1D095C20000091102104F073FF2100B3
:1003F0006F4805F0D5F96F4B6F4A1C936F4B062180
:100400001CA81D931E9320931F92219401F084FB3E
:1004100000F076F96A4B6B4E09936B4B07936B1C9C
:1004200099466A4B08936A4B05936A4B06936A4B4D
:100430000A936A4B0B936A4B9B466A4B9A466A4BEC
:100440000C936A4B0D9312F0F9FC099805F0A8F98A
:10045000280001F0A7F90028FAD0280001F02AFAB4
:10046000079805F09DF94C4621783000013405F0DD
:1004700097F9A742F8D1089805F092F94B46059AEA
:100480001B781278934232D0069A1278934256D053
:1004900080240A9805F084F94346FA20A4015C619F
:1004A000800002F0E7FB43469C6153461868002336
:1004B00059460B9A009300F0F5F8642002F0DAFB3D
:1004C000C1E74B4805F0E4F81CA80300143426CC1F
:1004D00026C3226804211A6001F01EFB0120454B4F
:1004E0009D44F0BCBB46B246A946A046F0BD4A4674
:1004F0005178059A52789142C6D14A469178059A28
:1005000092789142C0D14A46D178059AD2789142E8
:10051000BAD10C98802405F043F94346FA2024010F
:100520005C61800002F0A6FB43469C61534618685C
:10053000002359460D9A009300F0B4F8BDE74B46EE
:100540005A78069B5B789A42A2D14B469A78069BD2
:100550009B789A429CD14B46DA78069BDB789A428C
:1005600096D1D6E72448ADE774FBFFFF801A06005A
:1005700038130020BCC8011000C0034088130000DD
:100580001CA5011034A5011040A501101027000082
:100590000400400070A501107C260020EB0800003C
:1005A000E8080000EA08000084A50110E90800003E
:1005B00090A50110A4A50110C4A50110B4A50110B7
:1005C000D0A50110F4A50110E8A50110F8A50110AF
:1005D000081200200C120020FCA5011018A6011022
:1005E00028A6011058A3002030A601101CA6011057
:1005F00054A501108C04000000A5011010B502489C
:1006000005F0CEF810BDC04690A601100B0010B545
:1006100011001A00014805F0C3F810BDB4A601107E
:1006200010B5002903D1044805F032F810BD034885
:1006300005F0B6F8FAE7C046CCA60110E4A6011012
:1006400070B50500140082B0002A13D10F4805F0E0
:100650001FF801220E4E01923100002228000D4B9E
:10066000009418F04DFA021E0AD031000A4805F035
:1006700097F803E01100094805F092F802B070BD48
:1006800000223100064805F08BF8F7E710A70110AB
:100690002CA701102106001038A7011084A7011013
:1006A00060A70110F0B5C64600B584B01F000AABC4
:1006B0001B7806001000140098460D0019F0F0FC9D
:1006C000002203920292424683B201922900220044
:1006D0003000009718F082F8021E07D02900064863
:1006E00005F05EF804B080BCB846F0BD22002900D9
:1006F000024805F055F8F5E7A0A70110D0A70110B2
:1007000070B58AB0194802A912F014F9002820D057
:1007100018F07CFB164C2060002822D00023154ADC
:10072000154918F067FB03A90A00144B61CB61C29D
:1007300061CB61C21B68136000222068104B0191DD
:10074000009202A90F4A18F069FB011E05D10AB0F8
:1007500070BD0D4804F09CFFF9E70C4805F020F847
:10076000F5E70B4804F094FFF1E7C046F8A7011045
:1007700058A300200D060010FD050010F4C801105C
:10078000410600105B07000008A8011054A80110E2
:1007900038A8011030B5094C0948226800255300DB
:1007A0009B18DB001900103109180438C0181123F8
:1007B00001320D802260036130BDC046801B0020E5
:1007C0002CA30020F0B5DE46454657464E46E0B520
:1007D0000500802001438B46286983B0C046C0468F
:1007E000C04601218140D020000680468161C0467C
:1007F000C046C046002A33D092461C009A446B463D
:100800009E1DDF1D01239946002333705B463B701C
:100810002B69C046C046C0464A469A40130042462D
:100820009361C046C046C04601223900E86819F00D
:10083000FBFD012332000021E86819F0B5FD2B69AA
:10084000C046C046C0464A469A40130042465361DD
:10085000C046C046C0463378237001345445D3D1D6
:100860002A69C046C046C04601239340D0221206E2
:100870005361C046C046C04603B0F0BCBB46B2465A
:10088000A946A046F0BDC046F0B5DE4657464E46E6
:1008900045469B460223E0B583B000AFBB80040011
:1008A000894690460369C046C046C04601252A00D5
:1008B000D0269A403606B261C046C046C0460222E3
:1008C000391DC06819F0B0FD2369C046C046C04656
:1008D0002A009A407261C046C046C046AA4BBB80FF
:1008E0002369C046C046C0462A009A40B261C0464D
:1008F000C046C0460222E068391D19F095FD236903
:10090000C046C046C0462A009A407261C046C046F2
:10091000C0460023FB7094333B712369C046C04638
:10092000C0462A009A40B261C046C046C046012275
:10093000391DE06819F078FD01230021E068FA1CF8
:1009400019F032FD2369C046C046C0462A009A40CD
:100950007261C046C046C0461423FA783B71943B8E
:1009600013437B712369C046C046C0462A009A40A3
:10097000B261C046C046C0460222E068391D19F087
:1009800053FD2369C046C046C0469D407561C046C0
:10099000C046C04601236E4643449A460733DB08EF
:1009A000DB00F31A9D4612236D462B704346002B45
:1009B00004D042464946681C03F0FCF82369C0464F
:1009C000C046C046012290469A401300D02212062B
:1009D00091469361C046C046C04652462900E06831
:1009E00019F022FD2369C046C046C04642469A40DF
:1009F00013004A465361C046C046C046634BB546E5
:100A0000BB802369C046C046C04642469A40130098
:100A10004A469361C046C046C0460222E068391D7E
:100A200019F002FD2369C046C046C04642469A40BE
:100A300013004A465361C046C046C046002399464B
:100A40008A339A46524D04E0013DADB2002D00D1EB
:100A500097E04B46FB7053463B712369C046C04646
:100A6000C0464246D0269A403606B261C046C046CD
:100A7000C0460122391DE06819F0D6FC012300218F
:100A8000E068FA1C19F090FC2369C046C046C046D5
:100A900042469A407261C046C046C046FB785B073A
:100AA000D2D50223BB802369C046C046C046424619
:100AB0009A40B261C046C046C0460222E068391D75
:100AC00019F0B2FC2369C046C046C04642469A406F
:100AD0007261C046C046C0464B46FB70C4233B71A2
:100AE0002369C046C046C04642469A40B261C046ED
:100AF000C046C0460122391DE06819F095FC01236B
:100B00000021E068FA1C19F04FFC2369C046C0467A
:100B1000C04642469A407261C046C046C0465A46E8
:100B2000FB7813704B46FB70C2233B712369C046B0
:100B3000C046C04642469A40B261C046C046C04622
:100B40000122391DE06819F06FFC01230021E068E3
:100B5000FA1C19F029FC2369C046C046C04642462B
:100B60009A407261C046C046C0465A460020FB7893
:100B70005370BD4603B0F0BCBB46B246A946A04682
:100B8000F0BD0320F5E7C0460A04000002030000A0
:100B900088130000F0B59F4ED025802783B0040055
:100BA000C660FA202D067F03AF61800002F062F874
:100BB0006F61322002F05EF8112001F07FF880238F
:100BC0009B026B6230006B61934918F0E5FD0222D5
:100BD000924973680A603168134005325140C83247
:100BE0000A408F4912200A608E4A0121136000F0EA
:100BF000C5FF0121132000F0C1FF0121102000F0EA
:100C0000BDFF894B01AF3B802369C046C046C0464B
:100C1000012632009A40AA61C046C046C046022260
:100C20003900E06819F000FC2369C046C046C046A0
:100C300032009A406A61C046C046C0467B4B3B804A
:100C40002369C046C046C04632009A40AA61C046E9
:100C5000C046C04602223900E06819F0E5FB23696E
:100C6000C046C046C04632009A406A61C046C0468F
:100C7000C0466F4B3B802369C046C046C046320029
:100C80009A40AA61C046C046C04602223900E068C8
:100C900019F0CAFB2369C046C046C04632009A40DC
:100CA0006A61C046C046C046D6239B003B8023698C
:100CB000C046C046C04632009A40AA61C046C046FF
:100CC000C04602223900E06819F0AEFB2369C04635
:100CD000C046C04632009A406A61C046C046C0461F
:100CE000544B3B802369C046C046C04632009A4000
:100CF000AA61C046C046C04602223900E06819F029
:100D000093FB2369C046C046C04632009A406A61E0
:100D1000C046C046C046484B3B802369C046C046DB
:100D2000C04632009A40AA61C046C046C046022270
:100D30003900E06819F078FB2369C046C046C04618
:100D400032009A406A61C046C046C0463B4B3B8079
:100D50002369C046C046C04632009A40AA61C046D8
:100D6000C046C04602223900E06819F05DFB2369E5
:100D7000C046C046C04632009A406A61C046C0467E
:100D8000C04600236A46D370A8333B702369C0462F
:100D9000C046C04632009A40AA61C046C046C0461E
:100DA00001223900E06819F03FFB6A460123002167
:100DB000E068033219F0F8FA2369C046C046C0461D
:100DC00032009A406A61C046C046C0466B46DB7836
:100DD000DA4392071CD028223A70032213437B7017
:100DE0002369C046C046C04632009A40AA61C04648
:100DF000C046C04602223900E06819F015FB23699D
:100E0000C046C046C0469E406E61C046C046C04611
:100E100003B0F0BD00C0034040420F0004F00340A7
:100E200000D0034004E00340020F00005480FFFFA5
:100E300056A9FFFF5AE8FFFF2A400000223D0000AC
:100E4000F0B557464E464546DE46E0B58BB002AF9C
:100E5000FA60BB60182230239B18DB191E784023F0
:100E60009B18DB191B7804007B6144239B18DB195A
:100E70001B7888467B607B6D002B00D10AE21B78D3
:100E80007A6912019B18DBB23B610223BB832369A1
:100E9000C046C046C0460122D02591469A402D0644
:100EA000AA61C046C046C0461C230222F918E06869
:100EB00019F0BAFA2369C046C046C0464A469A406D
:100EC0006A61C046C046C0466F4BBB832369C046BB
:100ED000C046C0464A469A40AA61C046C046C0467F
:100EE0001C230222F918E06819F09EFA2369C04613
:100EF000C046C0464A469A406A61C046C046C0469F
:100F00000023FB7694333B772369C046C046C04636
:100F10004A469A40AA61C046C046C0461C230122E8
:100F2000F918E06819F080FA1B2201230021E0681B
:100F3000BA1819F039FA2369C046C046C0464A4675
:100F40009A406A61C046C046C0461423FA7E3B7789
:100F5000943B13437B772369C046C046C0464A464C
:100F60009A40AA61C046C046C0461C230222F91816
:100F7000E06819F059FA2369C046C046C0464A469F
:100F80009A406A61C046C046C0466A46731C9B468A
:100F90000733DB08DB00D31AEA469D4602AB9946CD
:100FA00012234A461370002E05D009203200B9687A
:100FB000684402F0FFFD2369C046C046C0460126D2
:100FC0003200D0259A402D06AA61C046C046C046D0
:100FD0005A464946E06819F027FA2369C046C046D8
:100FE000C04632009A406A61C046C046C0461A23D5
:100FF0009946D5463B773B697B772369C046C04617
:10100000C04632009A40AA61C046C046C0461C2372
:101010000222F918E06819F007FA2369C046C046B1
:10102000C04632009A406A61C046C046C0460223AC
:101030003B7743467B772369C046C046C0463200B3
:101040009A40AA61C046C046C0461C230222F91835
:10105000E06819F0E9F92369C046C046C04632008D
:101060009A406A61C046C046C04643460C2B00D138
:1010700012E1FA23DB00994600239A4688339B4607
:10108000FB68012698460CE0087F00001E4200D055
:10109000F7E001235B429C46E1444B46002B00D124
:1010A000EFE05346FB765B463B772369C046C0467C
:1010B000C0463200D0259A402D06AA61C046C046DF
:1010C000C0461C230122F918E06819F0ADF91B2273
:1010D00001230021E068BA1819F066F92369C046B7
:1010E000C046C04632009A406A61C046C046C0460B
:1010F0004246FB7E1342C9D05346FB768C233B7796
:101100002369C046C046C04632009A40AA61C04624
:10111000C046C0461C230122F918E06819F084F982
:101120001B2201230021E068BA1819F03DF9236958
:10113000C046C046C04632009A406A61C046C046BA
:10114000C046FB7E9846132342461A4091464246CB
:10115000134200D0EBE0FB6C002B00D1E2E03B6DD2
:10116000002B00D1DEE04B46FB7694233B772369CE
:10117000C046C046C04632009A40AA61C046C0463A
:10118000C0461C230122F918E06819F04DF91B2212
:1011900001230021E068BA1819F006F92369C04656
:1011A000C046C04632009A406A61C046C046C0464A
:1011B0003B6DFA7E1B78934200D2C1E03B6D122159
:1011C0001A707B6920000093FB6CFFF7FBFA4B461B
:1011D000FB7698233B772369C046C046C046320061
:1011E0009A40AA61C046C046C0461C230122F91895
:1011F000E06819F019F91B2201230021E068BA18F0
:1012000019F0D2F82369C046C046C0469E406E61C0
:10121000C046C046C0460723FA7E41461340082216
:101220000A40796D002900D185E00B70002A00D0BA
:1012300084E07A68002A00D17BE03A6D1278012AB6
:1012400000D17FE01BD9002B19D1023A1C332000BA
:10125000F96CD2B2FB18FFF717FB002812D1FA6C19
:101260003B6D94461B7863449A1E11783A7F9142F5
:1012700005D1013B1A787B7F9A4200D159E00720C3
:1012800000E00320BD4609B0F0BCBB46B246A9460B
:10129000A046F0BD0023F3E50023FB769A333B77AD
:1012A0002369C046C046C04632009A40AA61C04683
:1012B000C046C0461C230122F918E06819F0B4F8B2
:1012C0001B2201230021E068BA1819F06DF8236988
:1012D000C046C046C04632009A406A61C046C04619
:1012E000C0464B463B778023FA7E5B4213437B77B5
:1012F0002369C046C046C04632009A40AA61C04633
:10130000C046C0461C230222F918E06819F08CF888
:101310002369C046C046C0469E406E61C046C04676
:10132000C046A6E643461807C00F4000AAE70120C2
:10133000A8E70020A6E7002A00D17AE70220A1E76B
:1013400004209FE7042B00D099E7FF209AE7C046CE
:10135000F0B5DE464E4645465746E0B593B006002A
:10136000884693460A91502A00D9C0E120220023E2
:1013700006A8801803700FAD9C332B703369C046EC
:10138000C046C04601242000D02798403F06B861DF
:10139000C046C046C0462900F0681F3A19F044F81C
:1013A00001230021F0680EAA18F0FEFF3369C04641
:1013B000C046C046200098407861C046C046C0463E
:1013C000202206AB9B181A781C232B706333134022
:1013D0006B703369C046C046C04622009A40BA616D
:1013E000C046C046C04602222900F06819F01CF829
:1013F0003369C046C046C0469C407C61C046C0467A
:10140000C04693232B705B46002B3BD0424612789C
:101410005BB2042A00D9B8E10122002192460022E1
:101420000B9107201840411E8841D9104018002117
:10143000C0B2884600282BD0011C042800D9042102
:10144000002498460220C9B206940A9C471CA44670
:10145000624454782C5401290DD0841CA146947800
:10146000EC55022907D04C46D77803302F55042974
:1014700001D112792A54069A002A09D008335BB2A6
:10148000984605E000230B9301339A4600239846C3
:10149000534608935B46C34609935B461F2B00DD0A
:1014A00020E107241C4006AB5C775B46DB1002336F
:1014B000DBB21A01A2186A702200511E8A419A18E2
:1014C000D2B20792EA1806920922D31A2201DBB29D
:1014D000A21806A98C461E27202067443B701A23B9
:1014E00009180B70634621215B181A703369C046D6
:1014F000C046C046012291469A401300D0221206EF
:1015000092469361C046C046C0460222F0680EA9CA
:1015100018F08AFF3369C046C046C0464A469A4022
:10152000130052465361C046C046C046002306AA77
:101530009446059398461D3363440393069B049495
:101540000193079B302200930C212B00300002975F
:10155000FFF776FC0400022800D175E000286BD16B
:10156000202398465B461F2B21DC7023EA786B70A2
:10157000AB78290053402A79300053406A795340B0
:1015800006AA9446AB712B2307226344FFF77CF92C
:10159000041E51D106AB587706A82A21844661441F
:1015A00006910921C34600220323079191E7089B76
:1015B0009A46099B9B46AB78882B00D1D1E00A99CB
:1015C0000B9A8C4662445370EB7893702B79D370EE
:1015D0006B7913713B780B93032B00D0DDE006ABE6
:1015E0005B7F002B00D0D8E006AA9446069F2633E6
:1015F0000122390030006344FFF746F9041E1BD175
:10160000AA787B789A4200D0C9E0EA78BB789A42FF
:1016100000D0C4E0042214003B781C401A4200D1E0
:1016200067E053460133DBB29A46022B00D175E0E6
:10163000032B00D165E00524200013B0F0BCBB46AD
:10164000B246A946A046F0BD424606AB2021DA7755
:101650009C2306AA521813703369C046C046C04680
:101660004A469A40130052469361C046C046C0465F
:1016700001220EA9F06818F0D7FE06A98C461F2299
:1016800001230021F068624418F08EFE3369C046E1
:10169000C046C0464A469A40130052465361C0466F
:1016A000C046C04606ABDA7F9306C5D41F210B00A7
:1016B0001340114218D01A009345BCDA0720013AB2
:1016C0001040020059B28B46511E8A4101218140CF
:1016D000DB089B180133EA5C0A43EA545B461F2B84
:1016E00000DCDEE6D84640E720222023E4E706249B
:1016F000A2E70A9AD37253465B0053440133137036
:101700009AE75A469723303A2B7053B2DB430621AF
:10171000DB1713405BB206220B9182E695232B70F8
:101720005B46002B1AD05A46183A53B2DB430A994B
:10173000DB17097813405BB20322072900D870E653
:10174000072088211840A970411E8841D9104018EF
:10175000C0B2002810D10823984699E6032200233E
:101760005FE60A9A0B9B9446EA7863445A702A799A
:101770009A706A79DA702DE7011C03280BD80124CE
:1017800098460320C9B206945FE6012200219246E2
:101790000B910022D4E70321F1E701244CE7072451
:1017A0004AE7C046F0B5DE4657464E464546E0B5E8
:1017B0001926022389B06E44337018336B449B465C
:1017C00026235A461B25137000236D449A462B701E
:1017D00007AF9C333B7004000369C046C046C04657
:1017E000012290469A401300D0221206914693613E
:1017F000C046C046C04601223900C06818F014FE39
:1018000001232A000021E06818F0CEFD2369C046BC
:10181000C046C04642469A4013004A465361C046FD
:10182000C046C0461C232A783B70633313407B704C
:101830002369C046C046C04642469A4013004A4605
:101840009361C046C046C04602223900E06818F0E5
:10185000EBFD2369C046C046C04642469A4013008D
:101860004A465361C046C046C04607232B705346C4
:10187000059304934346302200930C215B462000DD
:10188000039502960197FFF7DBFA00280DD1337814
:10189000022B06D009B0F0BCBB46B246A946A04612
:1018A000F0BD287843425841F4E70238434258419A
:1018B000C0B2EFE710B500220100FFF749FD434237
:1018C0005841C0B210BDC046037842788178D21A20
:1018D000C37801325B1A0133534343607047C046FB
:1018E000F0B54746CE4680B58BB003AC2200104B16
:1018F000802723CB23C223CB23C21B88002613803F
:1019000026236B4499460B4B02AD984623782F70E3
:101910006B702A0002233C2140460096013417F0E8
:1019200031FF4C45F2D10BB0C0BCB946B046F0BD5A
:1019300050CB011038130020F0B557464E464546AF
:10194000DE462123E0B587B004AC23700B788346D4
:1019500063704B788A46A3702223E3704B8800277C
:10196000A38016236B44994680239846174E03ADF7
:10197000424623782A706B702A0002233C213000F3
:101980000097013417F0FEFE4C45F1D153465B68D9
:101990005D1C2800984602F0E9F840230400424606
:1019A00059460370013002F005F92B0022003C215A
:1019B0003000009717F0E6FE200002F0E9F807B0CB
:1019C000F0BCBB46B246A946A046F0BD3813002085
:1019D000F0B5DE4657464E464546E0B585B0782917
:1019E00049DC382A47DC1D78002D44D00724D6175F
:1019F0003440A418E410E401A346444A0292444A45
:101A000003920133782931DC0326029A2C00525DBF
:101A10003240022A01D1203CE5B2213DEDB2392D00
:101A200032D8039AAD0052599746403C394AE400F7
:101A3000155D12195478AA46A14694785779A046A4
:101A4000D4789679A4461479D57901945A465446A7
:101A50008A1884544C4682185470444694706446E4
:101A6000D470019C577114719671D5711D7808312D
:101A700009B2002DC5D105B0F0BCBB46B246A9469F
:101A8000A046F0BD153CD1E7002500260022002726
:101A900094469046914692460192D7E700220192E1
:101AA0000732944600229046002200250026002797
:101AB000E1469246CAE7002201925F329446002234
:101AC000002500260027904691469246BEE7002555
:101AD00000260327142201920022944614329046D5
:101AE000002291469246B1E7002500260027F1E743
:101AF00006220192002200250326062794469046DE
:101B000091469246A2E706250626BFE7E94805105A
:101B100010C90110F8C9011070B5164C164BA54438
:101B200000930023050068460C000193FFF7CCFEEC
:101B300080220021D20002A802F036F8694602A8ED
:101B4000FFF7FAFE002C0CDDA60036190024760003
:101B500022B2052108CD02A80A34FFF739FFB442AA
:101B6000F6D1694602A8FFF7E7FE8123DB009D441A
:101B700070BDC046F8FBFFFF007F0007094A8300E5
:101B80009A1810B514684022544080322240064C06
:101B9000C000A44663441A60044B9C466044416004
:101BA00010BDC04604C0014004D0014000400140C7
:101BB000074B8000C3181B68C90092000A435A40B3
:101BC0000C231340034A9446604403607047C046A8
:101BD00004C0014004D001408000002905D0064B1C
:101BE0009C460223604403607047044B9C460223DA
:101BF00060440360F8E7C04604E0014004F001409F
:101C0000D0231B061B6830B50500584243412F20E6
:101C10005B4283430E48EC0884460720284080003E
:101C2000814020000B4D3C3063448000A4004151B2
:101C30001B19002A05D08022920194466344196042
:101C400030BDC0229201944663441960F8E7C04653
:101C50003041014000400140D023F0B5C6461B068C
:101C600098461B680C4F9B001600FA5804000D00A4
:101C700000B5104209D1290014430D203200FC5058
:101C800000F0A0F980BCB846F0BD01F0A3FA4346CD
:101C90001B689B00FA58EEE738E2002010B50400FC
:101CA0000D2000F089FAD0231B061B6802499B0017
:101CB0005A58A2435A5010BD38E200200123D022C6
:101CC0008340120693629361094A83009A1811684F
:101CD0004022514080320A400649C0008C4663448D
:101CE0001A60054B9C460523604443607047C0461C
:101CF00004C0014004D00140004001408023DB05C6
:101D00001868000F7047C0460FB400B5084883B08C
:101D100003F0BEFC049B002B07D005A9180001911D
:101D200003F0FCFA034803F0B3FC012003F00EFBC0
:101D30008CA801109CA70110EFF3108072B6034A23
:101D40001368002BFCD0BFF35F8F70472C0100D0CD
:101D5000BFF35F8F0022024B1A6080F31088704738
:101D60002C0100D070B5EFF3108C72B60D4D2B68BE
:101D7000002BFCD0BFF35F8F0724CB08C618C05CD4
:101D800001230C40A3401C000440034207D1184328
:101D90003070BFF35F8F2C608CF3108870BD100023
:101DA000FFF7B2FF2C0100D0F8B54746CE46884673
:101DB00080B5EFF3108C72B6214D2C68002CFCD04E
:101DC000BFF35F8F9A422CD8D4080727055D061908
:101DD00001241740BC402C421FD00721012789460F
:101DE00009E0D408055D06194C4639001440A140AD
:101DF0000C00294211D001329342F2D2012040421C
:101E0000BFF35F8F00220E4B1A608CF310880028FE
:101E10000FDBC0BCB946B046F8BD25431000357095
:101E2000EEE7BFF35F8F00232B608CF31088012057
:101E300040424346002BECD00898FFF765FFC046B0
:101E40002C0100D030B5EFF3108C72B60A4C236829
:101E5000002BFCD0BFF35F8F072301220B409A4079
:101E6000CD08435D93434355BFF35F8F0023236049
:101E70008CF3108830BDC0462C0100D0044A107885
:101E8000431CDBB2172B00D9102313707047C046D8
:101E90001012002010B5064B064C82B001000093D2
:101EA00018221F232000FFF77FFF02B010BDC0469D
:101EB0009CA80110382600200021044B044ABFF3DF
:101EC0005F8F02C39342FAD17047C046000100D031
:101ED000800100D0054B064A1360064A1360536028
:101EE0009360D360136153619361704780808080F9
:101EF00000E400E004E400E01F2318401E3B8340A0
:101F0000002905D0C021044A49005350136070478E
:101F1000802201498B50FAE700E100E00122824073
:101F2000034B1B6813405A1E9341D8B27047C046FA
:101F300000E100E001238340014A13607047C0467E
:101F400000E200E0084B10309B688000C358002B73
:101F500007D0064A00209B1A2F229A424041C0B265
:101F600070470020FCE7C04600ED00E0141200209E
:101F700070B50D00EFF3108672B60F4A1368002B90
:101F8000FCD0BFF35F8F0D4B10309B6884001B5952
:101F90000B4A934203D09D4201D001F01BF9074B3D
:101FA0009B681D51BFF35F8FBFF35F8F0022024B11
:101FB0001A6086F3108870BD240100D000ED00E0A7
:101FC000CD010010F0B557464E46DE464546E0B519
:101FD00085B0060000911700EFF3108B72B66A4AC5
:101FE0001368002BFCD0BFF35F8F0025674B5D5754
:101FF0009A46002D00DAA9E06B00654C01935B194D
:102000009B009846A146C1444B4652469B791036E8
:102010001370604BB6009B6899590B1B2F2B33D95B
:102020005D4B994200D0ACE0019B42469C465B4B25
:102030006544AD0063535A4B0232A218043B9B1A0D
:102040001B05584A5B0D651913436B80564B0121E4
:10205000AB80FF23AB71009BEF71AB604B460B4332
:1020600019004C4B9B689951BFF35F8FBFF35F8F93
:102070000022454B1A608BF3108805B0F0BCBB46BC
:10208000B246A946A046F0BD01200A008243D3799A
:102090008C46BB4231D84546130044491B1B5B416B
:1020A0005943090D3D4B63533D4B02356519043BC4
:1020B0005B1B1B053B4D5B0D2B43AA464D466B80BE
:1020C0000425AC465546E044131F44441B1B1B0526
:1020D0005B0D1D434B46997100999D80996049465F
:1020E000DF71334B01431360BBE75800C018800019
:1020F0002018C179B9422FD902000623D356002BEC
:10210000F3DA02932B4B61460393131D9A46042383
:102110005B429C46E14450464B461B1A1B055B0D37
:102120009C46204B957198466346404603439380F6
:10213000019B5A199200039BA418A380029B1C4A7E
:10214000A371009B2260E771A3608AE701F042F867
:10215000002553465D574FE7908802934005131DB5
:102160009A46031561469C464046D4446346043073
:102170002018181AE0230005400D1B021843039095
:10218000C5E701F027F84FE7240100D0C4E30020A1
:102190001412002000ED00E0CD01001000A1FFFFAF
:1021A0004412002000E0FFFF01BDFFFFAAAA0000CB
:1021B0000148804701BD0000F0B5DE4657464E4657
:1021C0004546E0B50C0083B0EFF3108872B6634A61
:1021D0001368002BFCD0BFF35F8F614B61499A6895
:1021E000030010339F00D55900938D4243D0A54280
:1021F00054D05D4EAA1B2F2A3DD85C4B9C461B68D1
:102200009A4601231A0099468240534613401F22E2
:1022100001934B46024093409A46802263465046C3
:102220009850BFF35F8FEFF305839B46002B37D0A9
:10223000009B5B4501D000F0CDFF2A004B469A433E
:102240009068844208D177E04B005B189B00F3183C
:102250009868844236D01A00062151560029F3DAD4
:10226000844255D0019B002B27D0C02251463F4BC2
:102270005200995019603A4B9B68DD51BFF35F8F54
:10228000BFF35F8F0022354B1A6088F3108803B0CC
:10229000F0BCBB46B246A946A046F0BD0D00EAE739
:1022A0002A004B469A4390688442D5D106201056A6
:1022B000130000280ADA0D0032E0802351462B4A31
:1022C000D150D8E706201856002822DB420011180A
:1022D000890074188946A1689960E179D97106214D
:1022E00061569971002925DBA488F11A640524152B
:1022F0004C440919E0240905490D24022143998021
:1023000013181B4A9B001178F31899711070A9E7F4
:1023100013005946002914D1FF319171154991805C
:1023200013490A789A71144A9B1B5B415A43120D58
:102330000A7097E71149E2E70620105613000028BB
:10234000C4DA0F4A0F49D21A083A5002400D01432D
:1023500099800D4952080A43DA8083E7240100D0AE
:1023600000ED00E0CD0100101412002000E100E0BB
:10237000C4E3002001BDFFFFAAAA000001BD0000C8
:102380004E12002000F0FFFF00F8FFFF10B5830899
:10239000040003202040FF24054AC00094468440E6
:1023A00081409B0063441A68A2430A431A6010BD2F
:1023B00000E400E070B501240443EFF30581EFF37E
:1023C000108C72B6214A1368002BFCD0BFF35F8FCC
:1023D0001F4B05001F4AED1A6D416A43120D1E4D39
:1023E0008900AE6852B27658A6421CD006215956D2
:1023F00091421CD012215956914222D01E21595689
:10240000914220D02A2159560324914210D0134BD7
:1024100019781A708171BFF35F8F00220B4B1A601D
:102420008CF3108870BDAB680D4C5C50EFE7002456
:102430006100091989005B18FF2199710949998088
:10244000E5E70124F4E70224F2E7C046240100D0C6
:1024500014120020AAAA000000ED00E0C4E300204E
:10246000CD01001001BDFFFF1F2110B5091A024860
:10247000FFF7E8FC10BDC046CFE3002010B5084BC5
:10248000084C82B001000093002205232000FFF7D2
:102490008BFC002801DB1F23181A02B010BDC046B8
:1024A000B8A80110CFE3002070B504000E0015009D
:1024B000FFF7E4FC0100200000F006F8A680E580AC
:1024C000BFF35F8F70BDC046024B9C4661448900DC
:1024D000016070474000003470B5114C114DAC42A2
:1024E0000FD2FF262368002B0CD0FFF7C7FC01009A
:1024F0002000FFF7E9FFA680BFF35F8F0834AC42EE
:10250000F0D370BDFFF7BAFC01002000FFF7DCFF3D
:102510002671BFF35F8F0834AC42E3D3F1E7C046C6
:10252000A0180020A818002010B50400FFF7A6FC92
:1025300001002000FFF7C8FFFF232371BFF35F8F67
:1025400010BDC04610B50400FFF798FC0100200044
:10255000FFF7BAFFFF23A380BFF35F8F10BDC04614
:1025600010B504000120FFF795FC034BC3189B0036
:102570002360BFF35F8F10BD40000034034B9C46C7
:10258000614489000160BFF35F8F704740000034F1
:102590000A4B1968EFF3108072B60A68002AFCD063
:1025A000BFF35F8F1B68BFF35F8F00221A6080F359
:1025B000108840BF002000217047C0465CE3002027
:1025C000F0B5DE4657464E464546E0B583B0EFF3DC
:1025D000058203231340B54A990052580091904652
:1025E00001229A40B24B93461A60B24B01932EE0FF
:1025F00043469B881BB2002B00DB99E043469B7946
:10260000002B00D0DDE0434608241C5F002C00DADC
:1026100006E143465A6963001B19DB00D3189D6825
:10262000DC686B1C00D107E1A34B00999C46614418
:102630009A6A0B69A81A9B1A984200D20D619E48AB
:1026400000F0AEFB8C4200DDEAE000D126E15B4603
:1026500099484363434608229B5E9946002BC7DB9B
:10266000424652695B0092464B44DB009A44534613
:102670009E68DF6800F094FB8F42B9DC00D100E176
:10268000002F00DAE1E05246534654691B69019A73
:10269000934200D1D4E0414652460820085E528859
:1026A000000421001043984704000D0023002B4331
:1026B00000D1CAE0002D00DBE7E030003900001B4C
:1026C000A94153469860D96000229A5E002A8FDBA8
:1026D00043465D6953009C18E4002C19A768E46820
:1026E0008C4200DD84E702D1874200D980E746466C
:1026F000328108360DE08C4200D1D3E01E00002369
:10270000F25E002A0ADB53009C18E4002C19A7682B
:10271000E4689B18DB00EB188C42ECDD53461A8012
:102720004B46338043469B881BB2002B00DA65E79B
:1027300043461A69EFF3108172B61368002BFCD080
:10274000BFF35F8F43469E88012342465B429380DE
:1027500036B21369BFF35F8F00221A6081F31088CD
:10276000002E00DA4AE743465D69083342469C463C
:102770007700BF19FF00EF19BB6860469846082331
:10278000D15E9246FC68002907DA0EE0A2424FD0E3
:1027900018000023C15E002906DB4B005B18DB003C
:1027A000EB18DA68A242F1DD524606800023FE5E95
:1027B0003980002EDCDA904643469B79002B00D10D
:1027C00021E7002342469371434646460821595E5D
:1027D00008364B1C24D047468946556902E006005E
:1027E0004B1C18D04B005B18DB00E8180A008C4625
:1027F000E95E43881BB2002BF1DA01235B42DC1750
:102800008360C4604A4503D031803B8903803A81AC
:10281000E1464B1CE6D14C46B846002C00DBF8E6FE
:1028200040BF03B0F0BCBB46B246A946A046F0BDCF
:102830009A684245ACD9B7E7631C00D0F4E6FEE6DF
:10284000200023699847002825D1534642461B881B
:1028500013811269EFF3108372B611680029FCD05E
:10286000BFF35F8F4246514652880A80424649462E
:1028700051801269BFF35F8F0021116083F31088CC
:10288000B6E6864200D8FBE6B2E60B4800F088FACE
:102890000019694115E76568246807E7854200D893
:1028A000D5E6BDE7874200D828E737E78CA30020AC
:1028B0003C700540C12500100040054070B52E4C0D
:1028C0002569002D04D00A212C48FFF7FDFD70BDBD
:1028D0002B4E0321300000F059FAE660FFF7CEFAE4
:1028E000284B03229C46D02322701B061B68012123
:1028F0006370254B6044A3600F2380002061022099
:10290000638063694942A180198002311986473189
:102910001D83585218315A5275325C399952183207
:1029200001319952183201319952183201319952BC
:10293000083518329D52023118329952183201313D
:102940009952183201319952183201319952183284
:10295000013199521832013199520C4B0C49DC600B
:1029600001303562FFF704FB01210320FFF7C4FAB1
:10297000084B1D60A7E7C0465C1200205CE3002006
:102980000040054040000034FFFF10008CA30020F1
:10299000C125001038600540004870475C120020D7
:1029A000F8B51F0008AB1B7804001600002B08D1F7
:1029B00000F0FEF932003B00121A8B41002B00DAC6
:1029C00053E02269EFF3108072B61368002BFCD03D
:1029D000BFF35F8F0223E15E63694A005218D200A1
:1029E0009B18002937DB1A8862802269BFF35F8F4A
:1029F0000025156080F31088069A9E60DF601A61DA
:102A0000079A5A615A8801325204520C101C002A4B
:102A10001FD082B25880080410432669EFF3108754
:102A200072B63268002AFCD0BFF35F8FA2881A808A
:102A3000A1802369BFF35F8F00221A6087F310889B
:102A40000B4923788C4601329A40E36863441A604C
:102A5000F8BD0120DDE72369BFF35F8F00221A6014
:102A600080F3108801204042F2E70020F0E7C046E2
:102A70003C20000070B501000469EFF3108C72B6C1
:102A800020680028FCD0BFF35F8F02200D5E4C69E8
:102A900068004019C0002418002D37DB20884880CA
:102AA0000869BFF35F8F002606608CF31088E3602F
:102AB00063880498013320615B0405985B0CA26075
:102AC00060611A1C002B1FD093B228046280184347
:102AD0000A69EFF3108C72B61368002BFCD0BFF3B9
:102AE0005F8F8B8823808D800B69BFF35F8F0022FF
:102AF0001A608CF310880B7801329A40CB68084931
:102B00008C4663441A6070BD0122DDE70B69BFF398
:102B10005F8F00221A608CF3108801204042F2E798
:102B20003C20000010B543890A1493421ADD53007B
:102B30009B184269DB00D3180469EFF3108C72B65E
:102B40002268002AFCD0BFF35F8F5A88090494B230
:102B5000090C8A4208D00369BFF35F8F00221A6014
:102B60008CF31088002010BD8022120214435C8078
:102B7000012302698371BFF35F8F002111608CF321
:102B80001088044902788C469340C2680120624450
:102B90001360E8E73C20000040787047F0B504007F
:102BA0000D0006267642F717C64636196F4100B566
:102BB00082B08F4214D811D000F0FAF832003B00F6
:102BC000121A8B41002B17DC002B47D02000290064
:102BD00000F0F8F802B080BCB846F0BD8642EBD9F0
:102BE0000022002316001F0000F0E2F832003B0034
:102BF000121A8B41002BE7DD00F0DAF832003B00BF
:102C0000121A8B41002B0ADB00230193154B320073
:102C1000009315483B00FFF72DFF0028D6DB00236B
:102C20009C46B046114A124E736A9F4204D8B16A5C
:102C30008845CBD99F42C9D11168EFF3108072B695
:102C40000B68002BFCD0BFF35F8F1368BFF35F8F5F
:102C50006146196080F3108820BFE5E7002AB5D0EF
:102C6000CAE7C046912500105C1200205CE30020FA
:102C70000040054070B5060000F09AF8FA22040002
:102C80000D00002330000021920000F021FF80237E
:102C9000001969411B06994202D3012002494042B2
:102CA000FFF77CFF70BDC046FFFFFF7FF0B5CE464B
:102CB000474680B504000D0083B0EFF305878846D2
:102CC000002F3ED12E4EA1463378F06804339B008E
:102CD000816A1B58601A5B1A98420ED320BF29499B
:102CE00000204B6AAB4203D38A6A0130944231D848
:102CF00003B0C0BCB946B046F0BD00F059F82200A0
:102D00002B00121A8B41002B2FDB1F4B220000934C
:102D100030002B000197FFF7ADFE011E25DD194B9A
:102D20005A6AAA421BD220BF3000FFF7FBFE154AA9
:102D30000020536A4345DBD3926A01309145D7D9CD
:102D400008E0104900204B6AAB42D1D38A6A0130B7
:102D5000A242CDD25B1B5A1E9341D8B2C8E79B6AF0
:102D60009C42E1D9AA42DFD1DDE7064A0020536A3E
:102D70004345BDD3926A01209145B9D9EAE7C046DF
:102D80005C120020004005409125001010B5024A59
:102D90000248FEF7E7FF10BDD4A801103C26002032
:102DA0000300416A0A00986A596A8A42FAD1704758
:102DB000034B596A0A00986A596A9142FAD17047DE
:102DC00000400540064A536A9942FCD807D1044B9B
:102DD00002E05A6A914202D19A6A8242F9D370475C
:102DE00000400540F8B5DE464E4657464546E0B53C
:102DF0008B4605000A991800160000F0F7FA0A9BA6
:102E00006C001F02324B64199C46A4006444636842
:102E100081469F4200D967602B1FDBB29846012B89
:102E200030D9C02380229B01E31812011A60294B7C
:102E3000AD0059599A4600291BD17301E02622683A
:102E400053401E40802342465B01E3181E60012A66
:102E500030D9802380229B01E31812011A60534667
:102E60004A4667605A51F0BCBB46B246A946A046E6
:102E7000F8BD586900F0BAFA013043001B18033B53
:102E8000FDD2DAE75B46012BCBD1C02303229B01A5
:102E9000E3181A60023AA3681A42FCD07301E026D4
:102EA0002268AD0053401E4080230A4A5B019246CF
:102EB000E3181E605A462168514003220A401A60F6
:102EC00001225B469A40A3681A42FCD0C1E7C04683
:102ED0000080004044260020F0B546464F46D646C6
:102EE000C0B51F00344B44009C462418A400644421
:102EF000636888461600FF2B02D880235B0063605E
:102F0000031FDBB29A46012B30D9C02380229B01DC
:102F1000E31812011A60294B850059599946002976
:102F20001BD17301E026226853401E408023524685
:102F30005B01E3181E60012A30D9802380229B01A7
:102F4000E31812011A6080235B0063604B465F51F7
:102F5000E0BCBA46B146A846F0BD586900F046FA52
:102F6000013043001B18033BFDD2DAE74346012B37
:102F7000CBD1C02303229B01E3181A60023AA36855
:102F80001A42FCD07301E0262268850053401E409F
:102F900080230A4A5B019146E3181E60424621687D
:102FA000514003220A401A60012342469340A2681E
:102FB0001342FCD0C1E7C0460080004044260020F8
:102FC000014B8000C058704744260020F8B504002B
:102FD00021481E0017000D0000F008FA010038001B
:102FE00000F004FA069B36041B031E432368002BE3
:102FF00020DB1A4B1A49E3185A1E93418022920192
:1030000094465B421B0B174A1B0363441360164A2A
:1030100013601F000A689743FBD1144B2560E21828
:103020002123A06013602368002BFCDA0823E660EC
:103030001360F8BD3F2322681340AB42D9D1A36887
:103040001B051B0D8342D4D1EE22E368D20213404C
:10305000B342CED1EDE7C046001BB7000040FDBF34
:1030600008C0004000E0004000F0004004300000D4
:1030700010B580241C4BE4051C6000281AD00123E5
:103080001A4C18431A4BDC611A4C44401C625962BA
:1030900098628021144BC9051960174817490860C8
:1030A000E021C9041960002A07D18022144B1206BE
:1030B0001A6010BD0E4BD861EBE753019B1A9B00C1
:1030C0009A18802312015B049A4209D213000D4919
:1030D0000B60074B5A608022094BD2051A60E8E763
:1030E000094B1A00F3E7C04600B00540D3C007B053
:1030F000008005402D3FF84FFCFF010008200140F3
:1031000000A0054048390020FFFFFF008023024A4D
:103110009B000B43D362704700800540142310B519
:103120000100188804331B88984710BD162310B57A
:103130000100188802331B88984710BDF8B5474630
:10314000CE4680B50F1E19D01423994604330400CF
:103150000025012698464B461888434621681B885F
:10316000984701C4431E9841013540420640AF4292
:10317000F1D13000C0BCB946B046F8BD0126F8E731
:10318000142370B50400188804331B880D0005490A
:10319000984703000020002C01DB0130A0402900EB
:1031A0009847C04655420000AA23064A1B011360F7
:1031B0002F230549D360054B19605368002BFCDAB7
:1031C0007047C0460040024000B0FA000060024074
:1031D0007047C04610B50148FEF796FDF8A80110EB
:1031E00070B5074D074EB54209D20024013E761B4B
:1031F000B60808CD984723000134B342F9D170BD19
:10320000B8A40110F4A40110054B064A06491A603F
:10321000064A074B1A6010000B689843FBD17047B1
:1032200000E00040BFCDFBFE08C00040FE7F3C0038
:1032300000F00040044BDB6C002B03D18022034BD9
:10324000D2021A607047C046000011504C20115045
:10325000044A054B1A60054A1368DB018033FBD131
:103260007047C046FFFFFF0100F0004008C000406B
:103270004022034B9A675A671A67DA667047C0465E
:1032800000F0014010B5FEF717FE10BD70B5044DFB
:10329000044CA968C022200000F08CFCAC6070BD1A
:1032A00000ED00E000000020002310B5294C82B0A2
:1032B000A367FFF779FF0122274B1A60636C012B8C
:1032C000FCD10322254B1A60224A936B012BFCD1BF
:1032D000013300930121224A22480433FFF776FE8E
:1032E000052301210093204A2048FFF76FFE0022AA
:1032F000022104201E4BFFF7EFFD002201210520D3
:103300001C4BFFF7E9FD0022002107201A4BFFF7B5
:10331000E3FD002200210820174BFFF7DDFD80238D
:10332000DB000093002200210920134BFFF75AFD18
:103330000022104B00210620FFF7CEFD0420FFF7EE
:103340003FFE0E4900F052F801000020FFF7DEFEBC
:1033500002B010BD008000403CB0004030B00040E2
:10336000002F685900800240008C864700C0024050
:10337000001BB70040597307006CDC0240420F008D
:1033800001480421014B1847801200203D310010F4
:10339000014B9B681847000080120020124A936F6F
:1033A0009B0815D29066D166002905D0FFE7FFE79C
:1033B000FFE7516F106F704704B580210906C217EF
:1033C0005140002800D0C84317F00EF8002104BD7A
:1033D000F0B5146E556E576F166FFFF7E3FF146666
:1033E000556657671667F0BD000000D0114A936F0D
:1033F0009B0813D210665166002905D0FFE7FFE74E
:10340000FFE7516F106F704704B5002801D000200E
:10341000C04316F0E9FF002104BDC046F0B5146EAC
:10342000556E576F166FFFF7E5FF146655665767C1
:103430001667F0BD000000D094464A4A926F920889
:10344000624601D228E0C046F0B5464E346E756E35
:10345000776F366F00F020F89446424A146655663E
:10346000576716676246F0BD94463E4A926F9208CF
:10347000624601D254E0C046F0B53A4E346E756EE5
:10348000776F366F00F04CF89446364A14665566EE
:10349000576716676246F0BD002B24DB11D0002968
:1034A0003EDA00B5C943404200D1013100F038F89E
:1034B000C943404200D10131DB43524200D10133C4
:1034C00000BD002AEBD1002801D1002905D0002041
:1034D000C90FC90701D1C043410800B516F074FFF8
:1034E0000022002300BD00B500290ADBDB43524265
:1034F00000D1013300F014F8C943404200D101313A
:1035000000BDC943404200D10131DB43524200D1EA
:10351000013300F005F8DB43524200D1013300BD16
:10352000002923D1002B18D1002A0CD0BC460D4F06
:1035300038667A6600210023FFE7FFE7FFE77A6F2E
:10354000386F67467047002801D00748010000B572
:1035500016F03AFF0022002300BD02000B000020FD
:1035600000217047000000D0FFFFFFFF002B00D0BC
:10357000BFE0130C28D1002AE7D080B4114F396680
:103580007A66FFE7FFE730B4040C7B6F396F1B04EA
:1035900023433B667A66FFE7FFE7FFE7C04684B256
:1035A0007B6F3D6F1B0423433B667A66FFE7FFE7B3
:1035B000C04600232C042D0C7A6F386F0019694126
:1035C000B0BC7047000000D0F0B594460025140E42
:1035D00001D112020835140F01D112010435940FE4
:1035E00001D192000235D40F01D152000135D40B24
:1035F0000134254F7C66254C3C660E0C93B2FFE7E8
:10360000FFE7FFE73C6F6643360C7703BE46734324
:10361000DF0B5B04C01AB941130C7343DB18C91AE2
:10362000CE086643360CB64493B273431F0F1B019A
:10363000C01AB941130C73431F0B1B05C01AB941C3
:10364000860D8F023E436643360C092D24DB520A59
:103650007243801A7703460A6643360C16235B1BB7
:10366000DE40DF40BF1964466643821B7046043566
:1036700006330100D940A840C01900D30131A2424D
:1036800006D20023F0BD0000000000D0FFFFFFFFC6
:10369000121B0130F3D3F1E709277F1BFE4064467C
:1036A000A2B27243801A00D20139220C7243130C69
:1036B0001204821A99410B00704604351337010039
:1036C000F940A840801900D30131002B02D1A24259
:1036D0000AD2F0BD013000D30131121BFAD2013BF6
:1036E000F8D1A24200D2F0BD013000D30131121B4B
:1036F000F7E7F0B51C0C00D080E00CB400251C0AE4
:1037000004D11B02160E3343120208351C0B04D1E0
:103710001B01160F3343120104359C0B04D19B008F
:10372000960F334392000235DC0B02D192185B41B5
:1037300001351C00971864410134464F7C66464CA5
:103740003C660E0CFFE7FFE7FFE7C0463C6F6643B1
:10375000360C7703BE4697B27743C01B00D20139BF
:10376000C01B00D201399FB27743C91BC91B170C7C
:1037700077437E04FF0B801BB941CE086643360CAD
:103780000C2D33DBB644120B1F053A431B0B97B2CB
:103790007743C01B00D201399FB27743C91B170C76
:1037A00077433E043F0C801BB941860D8F023E4398
:1037B000664329277F1BFE400C3D7746AF40BF196B
:1037C00030BCA2B2ABB272437343801A9941220C4F
:1037D0007243130C1204801A994102000B00013746
:1037E000001BA941F9D2781E0021F0BD0C277F1BD8
:1037F000FE4077467F0BAF40FF19E0E700245D1CD9
:1038000007D0144F7D663966FFE7FFE7FFE7FFE764
:103810003C6F95B29EB265436643401BB141150CA7
:103820001E0C6543664336042F0C3E432D04401B9B
:10383000B141994204D202000B0020000021F0BDEA
:1038400001D19042F7D3801A994101349942F2D3C1
:10385000F6E70000000000D0FFFFFFFF48404140B6
:10386000484018B4134B5B68019308BD18B4114B62
:103870001B68019308BD94460F4A926F920805D2C7
:10388000624618B40B4BDB68019308BD0A4AF0B5D9
:10389000146E556E576F166F6246FFF7F2FF064AB9
:1038A0001466556657671667F0BD18B4014B9B68E0
:1038B000019308BD801A0020000000D0FFB55040E1
:1038C0004240504059404B40594000E0FFB5154F31
:1038D0004C00640D03D0BC4204D10C0314D800206A
:1038E000090D09055C00640D03D0BC4204D11C0322
:1038F0000AD800221B0D1B0501264B4009D44B4062
:1039000003D58B4200D18242FFBD9942FCD1904247
:10391000FFBD0B43DB1803431343F5D0C9434918DC
:10392000FFBD0000FF07000000B5FFF7CFFF80419B
:1039300000BDC04600B5FFF7C1FF01D9002000BDA2
:10394000012000BD00B5FFF7B9FF804100BD012097
:1039500040054A00121804D85A00121801D8002055
:1039600070470120704700000021002805D17047F2
:10397000C1174840401AFAD0C90713B5064B1B6857
:1039800098470CBC441CA2401005120B0349091BAC
:1039900009051943114310BD58E200201F0400001F
:1039A00010B54C00620D8023D218DB00D21A5B05E3
:1039B0007E2A10DD9E3A13DACC1709034908194311
:1039C0005242D140640001341532202A05DAD04039
:1039D0000843604310BD002010BD0846604310BD81
:1039E000C80FC018013810BD18B4024B5B6A0193B0
:1039F00008BD0000801A002010B50148FEF784F9C8
:103A000004A90110132370B51D78012D19D014DD00
:103A10001D48FFF78BFB06001C48FFF787FB1C4C7B
:103A200080223100200000F0C5F8022D06D0194890
:103A3000FFF774FB184B186070BD154C174BA3644F
:103A4000F5E7174B124C23606360A360E3602361CA
:103A50006361A361E36123626362A362E362236340
:103A60006363A363E36323646364A364E364236520
:103A70006365A365E36523666366A366E366236700
:103A80006367A367E367D9E7534400005346000028
:103A9000801A00204C33000058E20020A53A0010A4
:103AA000F939001007B5604601880A0A0230DF2A9A
:103AB000FAD1C9B2820804D30288408800041043B6
:103AC00000E00068014A5050039007BD801A0020B2
:103AD00051434343C9188C46110C83B24B4310B475
:103AE000040C614392B280B2504362431C041B0C2D
:103AF000001910BC59411304120CC0185141614403
:103B00007047000010B50148FEF7FEF8CCA7011081
:103B1000132310B510481C78FFF708FB0100012C97
:103B20000AD003DD80220D4800F044F80C48FFF76E
:103B3000F5FA0C4B186010BD084C5422200000F020
:103B400039F82200084980322368002B00D1216017
:103B500004349442F8D1E9E7534600005CE20020C7
:103B60004C33000058E20020053B001010B5040063
:103B700015F0B0FE002804D0034B04199C4200D875
:103B800010BD0248FEF7C0F8000004201CA9011077
:103B900010B515F0A9FE10BD01480421014B1847CE
:103BA000901200203D310010014B1B6818470000A7
:103BB00090120020014B5B68184700009012002013
:103BC0009A4200D2885470477047C046F8B55746AD
:103BD000DE464E464546E0B599460A9B07009A46A2
:103BE0000D9B884693460B9C9B073BD10C9B9C42AC
:103BF0003DD21E1B0B9415000C005E442A004B4660
:103C0000013521002020B847B542F7D1A0460B9CD2
:103C1000002C20D0454636195346321B013C185D16
:103C200029004B46B847002CF6D12B0035009846AA
:103C30000D9B9B070FD55B46EC1A0C9BA3420AD940
:103C4000464698462A004B46310020200134B847AA
:103C500001354445F6D32800F0BCBB46B246A94620
:103C6000A046F8BD16001500002CD3D1E0E71600E1
:103C7000002CCFD11500EEE7F0B54F464646D646AC
:103C8000C0B584B098460EAB1B7894469946129BFB
:103C90000D9C109F119E9A0725D4002E65D1BC4221
:103CA00021D201221A409246202C00D1E9E00C9A40
:103CB000551E302202E0202C00D17BE001342A5531
:103CC000A742F8D85246002A0DD0B4420BD20C9A23
:103CD000551E3022202C02D171E0202C2DD0013431
:103CE0002A55B442F9D1DA063CD55A052ED4002C17
:103CF00028D10F9A102A00D1B6E0022A00D1BCE0E8
:103D000030220C9C227001244A46002A65D15A07B1
:103D100000D499E02B220C9D2A55013403930C9B6F
:103D200062460093029643460194FFF74FFF04B0AA
:103D3000E0BCBA46B146A846F0BD2024DA06EDD56F
:103D40005A0503D4A74266D0B44264D00F9A102A11
:103D500071D0022A57D0202CE0D022000134302527
:103D60000C9FBD54202CD9D0CEE7012215001D4058
:103D7000AA461A4236D04A46002A4AD10C321A4282
:103D800047D1BC42A1D2202C91D1202E17D820247B
:103D9000DA06C3D55A051BD4202F01D0202ED5D149
:103DA0001F220F9D102D6FD0022DD8D162250C9FA0
:103DB000BD54D0E75246002A79D0202EBDD9202408
:103DC000DA06ABD55A0503D4202FE9D0202EE7D050
:103DD0000F9A102AA2D12024A0E72D220C9D2A554B
:103DE00001349BE7BC4200D37DE7202C00D05EE786
:103DF000DA06F0D55A05EED4202F62D0202EEAD173
:103E000034001F22CDE7202C00D187E722000134A7
:103E1000CCE7013EB5E7621E012CC2D10F9A102AF1
:103E200000D06AE79A063BD558220C9C2270283AAB
:103E30006270022468E79A060ED4202CCBD0782238
:103E40000C9D2A55013486E71A0700D466E7202224
:103E50000C9D2A55013461E7202CBCD058250C9AC2
:103E600012191570013476E79A0608D558220C9C71
:103E7000227030226270022446E76032F7E778222F
:103E8000F5E7002A83D1B3E7A21E013C9D0603D4C7
:103E900078250C9FBD5460E758250C9FBD545CE706
:103EA00078220C9C2270483A627002242CE7DA06D1
:103EB00000D433E75A058BD4202F00D044E71F22CB
:103EC0006FE73C001F226CE710B5002800D110BD41
:103ED00001F092FBFBE7C0460B0010B5002802D0B2
:103EE00049681B68984710BDF0B557464E46454691
:103EF000DE46E0B599B08246894690460893229AFC
:103F0000239B10001900FFF722FD002800D0CDE010
:103F1000229823990122D94B5242FFF713FD002822
:103F200000D0C3E0229823990122D54B5242FFF7DB
:103F3000FBFC002800D0B9E022982399002200233E
:103F4000FFF7F2FC002800D0F1E1229E239F80239E
:103F5000269ADB001A400D92269A1A4201D10623B6
:103F600024938023269A1B011A403B00934609960E
:103F7000334300D0B3E0002A00D0C2E10023002484
:103F80000A930B94002304250993259B0024AB423C
:103F900000D95C1B0223269A1A400C92269A1342DF
:103FA00003D06B426B415B421C40099B002B07D046
:103FB0000A9A0B9B30003900FFF75DFC06000F00EA
:103FC0002298239900220023FFF7AEFC002803D09B
:103FD000802109067B181F00269AAA4B009601979C
:103FE0001340089E0493249B03940293424633009B
:103FF0004946504600F0AAF90400002D67D0202061
:10400000269A4946024013005A4253415B42621CC1
:1040100018400A92330022004530D047099A6F1E9B
:10402000D317D4185C40D30F9B46002501E0202D08
:1040300013D008AA94461F23200063440A210135A7
:104040005E19FFF7D3F93031317020000A21FFF7F4
:10405000CDF926000400092EE9D805230693002394
:1040600004930A3303935B46089E029310AB0A9AAB
:10407000009349463300504605970195FFF7FCFD34
:104080000C9A0400002A22D04246851A259AAA4298
:104090001DD9B04657461600220043464946202007
:1040A0000135B8470134AE42F6D810E0269B4246AF
:1040B0000493259B49460393249B50460293229BDD
:1040C000239C00930194089B00F040F90400200019
:1040D00019B0F0BCBB46B246A946A046F0BD6A4B3B
:1040E00078009C46400D6044FFF742FC674A684BED
:1040F000FFF7DBFB674A684BFFF7B8FB674A3B03F8
:104100001B0B1A4304000D0009981100644B002298
:10411000FFF7A7FB634A644BFFF7C7FB02000B00E6
:1041200020002900FFF7A2FBFFF73AFC0990FFF7F8
:104130001FFC5E4A5E4B04000D00FFF7B6FB002239
:104140005C4BFFF793FBFFF72BFC5B4A5B4B2900B3
:104150000C902000FFF7A9FB04000C980D00FFF75E
:1041600007FC574A574BFFF7A0FB02000B0020004B
:104170002900FFF776FB04000D0002000B000A94F3
:104180000B95FFF792FB04000D000A980B990200B3
:104190000B00FFF76BFB00220E900F914A4B2000A3
:1041A0002900FFF768FB0022484BFFF75FFB020086
:1041B0000B0020002900FFF75EFB0022444BFFF7B5
:1041C00055FB02000B0020002900FFF754FB0A9A60
:1041D0000B9B0D0080210400C9050020FFF741FB67
:1041E00002000B0020002900FFF740FB02000B003B
:1041F0000E980F99FFF73FFB0022284BFFF736FB85
:10420000344B0C9C9C46644423050022FFF74DFB75
:1042100004000D0002000B00300039000A940B95D9
:10422000FFF782FB00285DD123002A00C6250999EB
:1042300063318D42AD4159466D420435002900D1AC
:10424000A3E6134363D030003900234A234BFFF722
:1042500071FB002807D0002230003900204BFFF707
:1042600063FB002853D1249B002B00D18DE60D9BCE
:104270005A1E9341249AD31A249386E6FFFFEF7FB8
:10428000FFFFEFFFFFF7FFFF01FCFFFFFB799F50F0
:104290001344D33FB3C8608B288AC63F0000F03F69
:1042A0000000F83F61436F63A787D23F71A379098C
:1042B0004F930A400000E03F1655B5BBB16B02407A
:1042C000EF39FAFE422EE63F00002C400000244069
:1042D00000001840FF0300002D431CEBE2361A3F9C
:1042E00080842E41099B0022013B09932000164B3C
:1042F0002900FFF7C0FA0A00010003000A910B929F
:1043000094E7002300240A930B9400230993249A32
:10431000099B9A4214DDD31A013B24938023269AE9
:10432000DB001A4300230025269209932DE6802204
:1043300012069446229B1E00239B63441F0006E640
:1043400000232493EAE7C04600002440F0B5454628
:10435000DE464E465746E0B595B08B4690469946A8
:104360001E9A1F9B0A9019001000209DFFF7EFFA7C
:10437000002800D0B0E11E981F990122C74B52427D
:10438000FFF7D2FA002800D037E11E981F990122CA
:10439000C34B5242FFF7D6FA002800D0A7E01E9880
:1043A0001F990022BF4BFFF7CDFA002800D088E00C
:1043B0001E981F990022BC4BFFF7B6FA002800D0C8
:1043C0007FE01E981F9900220023FFF7ADFA002816
:1043D00000D0FAE000230B938023229C229ADB007A
:1043E0001C401A4200D102E1092D00D87CE106A947
:1043F0008C462C00172200233021093C62440133F3
:10440000D154EF1A202B00D132E1A342F7D1002280
:10441000A44B069207931E981F99FFF7C1FA050057
:10442000FFF7A6FA02000B001E981F99FFF719FA72
:10443000069A079BFFF739FA08900991FFF7D4FA1B
:104440000600FFF791FA02000B0008980999FFF7A0
:1044500008FA0022954B08900991FFF773FA00289B
:1044600000D1D2E001363000FFF77EFA069A079BB2
:10447000FFF760FA002801D000260135AA46002F78
:1044800000D098E02800FFF773FA02000B001E9896
:104490001F99FFF7E6F9854B002206000F00FFF792
:1044A00043FA0CAB9A46002845D10022300039006F
:1044B0007E4BFFF747FA00283DD1EB073BD501358E
:1044C00039E0229B42460493219B594603930A9864
:1044D0001E9B1F9C0295009301944B46FFF704FD21
:1044E00015B0F0BCBB46B246A946A046F0BD229B23
:1044F0005B0767D403226E4B2299019203912199A5
:104500000291009342464B4659460A98FFF75EFBDC
:10451000E6E706AA94461723280063440A210134DB
:104520001E19FEF73BFF3031280031700A21FEF7DB
:1045300035FF051E76D0202CEBD10323229A1340A1
:10454000012B1DD1219B002B1AD00B9B002B00D0DF
:10455000BBE0229A0C33134200D0B6E0219BA34269
:1045600000D887E006AB9C4617223023624404E063
:104570002199013413558C4259D0202CF8D1202494
:10458000229B01940393219B02935346B9E706AA09
:10459000944617230A216344300001341D19FEF7A5
:1045A00025FF3031297030000A21013FFEF71EFF40
:1045B000092E46D90600202CE9D155460CAB202403
:1045C0009A46B8E704223B4B96E71E9A1F9B0020B1
:1045D0000021FFF746F901230B938023229C229AA6
:1045E000DB001E901F911C401A4200D0FCE6002206
:1045F000314B0627069207930DE7229B0393219BDD
:104600000293042301932D4B7BE70022089809991C
:10461000264BFFF789F9002800D02FE7002E4FD155
:1046200001362BE70323229A1340012B66D0202C5E
:10463000A6D00B9B002B1FD02D23524613550134BF
:104640009EE75546202CB9D030233A19002F08D0C8
:10465000172006A9013409180B55202CAED094421E
:10466000F6D10CAB9A462E2352461355013462E71D
:104670002024CCE6202C83D0229B5B0708D4229BED
:104680001B0700D47CE7202352461355013477E7FB
:104690002B2352461355013472E7C046FFFFEFFF4C
:1046A000FFFFEF7F65CDCD4165CDCDC10000E03F7F
:1046B00074A901106CA9011080842E417CA90110FD
:1046C000F30700D4DAE60136D8E6219B013B2193BB
:1046D000A34200D946E7AAE7229B0393219B0293BA
:1046E00003230193074B0CE7074BEA009B185C6818
:1046F0001B682F000693079400248CE6219B002B57
:1047000095D022E778A9011078CD0110F0B5574671
:10471000DE464E464546E0B5A5B01F002E9B9146AD
:104720000D93CA4ACA4B82468B461A60002900D1B3
:1047300029E2002338789846002800D12BE2C54BA7
:1047400044460C93C44B55464E460E930AE0631CF8
:104750009846220033005946A84744463878002836
:1047600000D187E001372528F1D108239A46043B80
:104770009946023B9846013B00229C460B943878B0
:10478000791C0300203BDBB2102B03D80C9C9B0050
:10479000E3589F460300303B0B9C0B92092B3AD900
:1047A000002398462A2800D1DDE000239A462E28CF
:1047B0004BD00300683BDBB2122B1ED80E9A9B0035
:1047C000D3589F4663460F001A43D8E743460F006D
:1047D0001A43D4E74B460F001A43D0E710230F00CB
:1047E0001A43CCE753460F001A43C8E780235B0007
:1047F0000B9A78781A430B9201310F0067284FD833
:104800002428A4D90300253BDBB2422B9FD893492F
:104810009B00CB589F46002398460B9B47469C46DF
:1048200000E00131BB00DB195B001F180878303F46
:104830000300303B092BF4D963460B930023B846A1
:104840009A460F0001312E28B3D180200B9AC00068
:1048500002430B9230225242944678780B008444F3
:104860006246092A00D8AAE12A2800D1B9E10F003E
:1048700001319EE7A046AA46B146C84503D30123AD
:104880005B424B4498464B46424659460020D0472F
:10489000200025B0F0BCBB46B246A946A046F0BDFC
:1048A00001006939C9B20F2900D950E701238B40B3
:1048B0009C466B4B994663464A4613400F936246AB
:1048C0004B461A4200D068E10A2956D0072900D089
:1048D0003DE70D9B02CB9846002900D092E10B9B4F
:1048E00010211A008A4310001131084381468020AC
:1048F0001A00C0000240110003421CD114AB9C46B8
:104900001F220F2362440D959C4615000F9B0B94AC
:1049100002E0202B0CD0110064460C402000373000
:10492000092C00D807380133E8540A090F29F0D8B8
:104930000B9C0D9D0F934B46082206935346059200
:1049400008320392002204930F9B029201931CAB46
:1049500022000093594633002800FFF78DF94346A3
:1049600004000D93FAE60D9B04CB9046002A79DBF8
:1049700078780D930F00013117E70D9B02CB14934C
:104980000B789C4618005346002B00D134E10028D8
:1049900015D05346013B013399460D940B9C894435
:1049A0004A460B00A14601E0934203D05C780133F4
:1049B000002CF9D14A465B1A0D9C0B920F93802371
:1049C000DB0099460B9A13400D934B461A4204D0D4
:1049D0000F9B534501D953460F93022399460B9AD7
:1049E00013400B934B46134200D1F5E16346002B75
:1049F00000D1D6E10D9B002B00D182E10B1BD146EB
:104A000031009A463B00A1442E005F464D462200ED
:104A10009B46894609E04B463900541CB047534633
:104A2000185D002800D192E122009542F3D14B4657
:104A30005A46A946BB46350017001E004C460B9B44
:104A4000002B00D0ADE1149B0D9387E60D470010BD
:104A500040390020D8CB01101CCC011068CC0110CB
:104A6000419000000B9A283802430B924246524272
:104A7000787890460F000D93013196E678786C288F
:104A800000D15DE180230B9A5B001A430B92013148
:104A9000B3E680239B00ABE67878682800D148E134
:104AA00080230B9A01311A430B92A6E6672800D1A6
:104AB000B2E0472800D11AE1452800D11CE10B9A49
:104AC0000721049242460D9B0392073352468B43C3
:104AD000190002920CC92800009201930D91220046
:104AE00033005946FFF700FA040037E6462800D1A4
:104AF0008DE00B9A0721049242460D9B03920733E7
:104B000052468B43190002920CC92800009201936F
:104B10000D91220033005946FFF718FC04001DE6F2
:104B2000631C98462200330059462520A847444676
:104B300014E60D9B04330F93631C99460B9B9A0755
:104B400000D40AE10D9B2200187859463300A8478B
:104B500043464444012B00D86FE1B0462E002500A7
:104B60004C46B9465F4622004346013439002020B6
:104B7000B047AC42F7D12C00BB4635004F46464605
:104B80000F9B0D93EAE5D64B38789A46002398465A
:104B9000002800D0D3E500246FE66F2842D000D86B
:104BA000FDE11023782800D19BE00B9A9A430B92E9
:104BB0000A239C46002314930A330F9338E0574688
:104BC0000B9AB900C919490001330F181878303F02
:104BD000010030390929F4D9BA460B921F00591C3B
:104BE000E7E50D9BB87804CB0237D143C9170A40DB
:104BF00092460D93791CDCE5002800D1DFE6022304
:104C00005B42C8E621200B9A0243914676E62023B8
:104C10000B9A1A430B926CE780230B9A1B011A43E1
:104C20000B924CE708239C460023149308330F9300
:104C30000B9880230200DB001A401100020018428A
:104C400000D080E00C239A431000802302009B00D8
:104C50001A400B92184200D0F1E0802302005B0062
:104C60001A4091460D9A04321492184200D0C3E2C1
:104C7000430600D5D7E0030600D421E30D9B1B8833
:104C80000993002B00D02DE110339843002900D167
:104C900028E10023994643460593534604930F9B0E
:104CA00006900393002302934B4601931CAB220012
:104CB0000093594633002800FEF7DEFF0400C2E6E9
:104CC000582809D0622800D0E3E202239C46002342
:104CD000149302330F93ABE720230B9A1A430B92E2
:104CE000103B9C460023149310330F93A0E78023BE
:104CF0000B9A1B011A430B9220230B9A1A430B9217
:104D0000DDE60B1B9A460F9B99463B0037005E463B
:104D10009B4622003B003100A84753460134185DF2
:104D20000028F6D14B460F935B46B3463E001F006A
:104D300085E6C0230B9AB8781A430B92F91C5CE500
:104D4000C0239B00F6E70D239A4310007DE75B46E6
:104D50003500BB464E461F0071E64346012B66D91F
:104D6000631E434432002E001D003B00A2465F46F6
:104D700091469B4622004B46013439002020B04723
:104D8000AC42F7D15B463500BB464E46A146544681
:104D90001F000D9B4A461878594633004444A847E3
:104DA000EEE60F9BA146984500D84CE64444E41A31
:104DB000B0462E0025004C46B9465F4622004346C9
:104DC000013439002020B047AC42F7D12C00BB465B
:104DD00035004F46464636E60F98804500D873E2C8
:104DE0004346E218131A32002E001D003B00914684
:104DF0005F469B460F9122004B460134390020202C
:104E0000B047AC42F7D15B46BB461F0043460F9903
:104E100001330F930B7835009C464E4660460028C0
:104E200000D0E7E50FE60D9B1B78099329E70D9B62
:104E30002200187859463300A8474C46A0E60D9A40
:104E4000FA3BFF3B07329A430133994691444B4664
:104E50000D931368526815921A4306D1103290438D
:104E600000220992002900D083E06122810600D54A
:104E70004122D2B20A9214AA91460A9A00210A3A11
:104E80000B9242461792524618925A46B2460991E0
:104E90001E001F31149B4944BB4616941A950024EA
:104EA000674698468946159D19901B920AE0303254
:104EB000D2B24B4601341A55A8454CD0202C4CD0C8
:104EC00006000D003A00002330002900FEF7CCFA5E
:104ED000D2B2092AEBD90B9B9C466244D2B2E8E7D6
:104EE000C93B00106123820600D54123DBB20A3B97
:104EF0000B93434614A91F228C46159353466244D4
:104F0000B2460D9417974C468046A9461700099D56
:104F10000F9E169308E03033DBB201343B55B542A7
:104F20000ED3202C0CD0050031002800FEF75EFACD
:104F3000CBB20929EFD90B9A94466344DBB2ECE774
:104F4000159B40469846169B4D465646A1469A46A6
:104F50000D9C179F9FE6B742B0D9179B56469846BF
:104F6000189B5F469A461B9B09949B46169C199872
:104F70001A9D43460593534604930F9B0690039353
:104F800000230293099B01931CAB22000093594616
:104F900033002800FEF770FE0400FFF7DFFB10234C
:104FA0000B9A9A430F92692800D091E10B998023C4
:104FB0000A00DB001A4010000A00194203D0112138
:104FC00018008A430F920F9A802311009B0019400A
:104FD0008C461A425BD1802311005B001940894640
:104FE0000D9904310B911A4200D0B2E013005B0618
:104FF00000D4EDE00D9B1B781A00D90F0D91002B0A
:1050000000D1A3E0100014AA944642461F23159233
:1050100052466344A846BA464D461494B14604002D
:105020001F00169201E0202D0FD020000A21FEF76C
:10503000DDF901357E193031317020000A21FEF78B
:10504000D5F926000400092EEDD8159B4E46A94639
:1050500045469846169B57469A46149C0F9B0693C6
:1050600043460593534604930A2303930D9B0293EF
:105070004B4601931CAB2200009359463300280095
:10508000FEF7FAFD0B9B04000D93FFF767FB072269
:105090000D9B07339343013294469C4462460D9224
:1050A0000CCBD90F0B911100194300D19BE0D917FC
:1050B00013911291514010911399594011911098E8
:1050C0001199129A139B801A99411090119114AA68
:1050D0009446424600231592524699461692320053
:1050E0001F336344A8464E46BA4614941F00109CD2
:1050F000119D914601E0202E10D0200029000A22A7
:105100000023FEF7B1F9013630322B00BA550D00FD
:1051100022000400002BEED1092AECD8159B109434
:105120001195454698464B46169AB14657461E007D
:105130009246149C0F9B0693434605935346049353
:105140000A2303930B9B02934B461CE7002885D14F
:1051500059E70D9B1B68DA0F1100002B00D1A6E068
:10516000DA179818504014AA91461F2342464B4420
:10517000A8460D94169704006546B1461F00149189
:10518000159201E0202D0FD020000A21FEF72EF904
:1051900001357E193031317020000A21FEF726F9E1
:1051A00026000400092EEDD8159BAC4645469846CE
:1051B000149B4E4619000D9C169F0F9B029106935F
:1051C00043460593534604930A230393634650E7EB
:1051D00013001B066ED50D9B00229B5ED9175A1833
:1051E0004A4092B209E7002399460028A2D1002242
:1051F0000023109211936AE70D9B1B689946002BC0
:1052000003D110339843002938D16123820600D599
:105210004123DBB20A3B0D9343461693534614A930
:105220001F228C4617932B0062444D46B2461594BC
:1052300018978046170099460B9C0F9E08E0303364
:10524000DBB201343B55B5420ED3202C0CD0050007
:1052500031002800FEF7CAF8CBB20929EFD90D9A20
:1052600094466344DBB2ECE7169B40469846179B96
:1052700056464D469A460B94189F159C43460593F7
:10528000534604930F9B06900393002302930B9BBA
:105290000BE50B9980230A00DB001A4010000A007E
:1052A000194200D08BE610239A430F928BE6002818
:1052B00083D158E70D9B1B68D9175A184A409CE6C2
:1052C0000D9B1B680993DCE4030001330F93A5E5F4
:1052D0000B926DE40CB430B585B008AC08CC064D2B
:1052E0000A000094010028000394FFF70FFA05B0AC
:1052F00030BC08BC02B01847C13B001000B585B0F7
:105300000391012102900093034813004A4202A92D
:10531000FFF7FCF905B000BDD93E001010B5094AF1
:105320000300146884B0002C08D0012200910648C4
:10533000524203A9A047012004B010BD00F0A8F913
:105340000020F9E740390020C93E001000BEFDE70B
:10535000094A03001068002805D00849C3188B4289
:1053600007D81360704706480449C31810608B4281
:10537000F7D901204042F5E7143500200000042051
:10538000D0E3002010B5FFF7E1FFC04670B5FDF790
:1053900027FF074D074EB54209D20024013E761B78
:1053A000B60808CD984723000134B342F9D170BD47
:1053B000F4A40110FCA40110030010B508001100B2
:1053C0001B68984710BDC046F0B5C64600B5437D82
:1053D00007000D001600002B38D0002A2EDD00211A
:1053E0006A1E90466A5C037D4C1C00200A2A0CD081
:1053F000A64216D043461B5D21000D3B5A42534145
:105400006A5CDBB24C1C0A2AF2D1002BF0D1884234
:1054100017DB022110483B689847A64207D02000BE
:10542000E8E7864203DD311A3B6828189847AD1932
:10543000013D2B780D3B5A4253413B7580BCB84629
:10544000F0BD091A3B6828189847E2E70368110085
:1054500028009847F2E7C046C8CD0110F0B5C6460F
:105460000B6806000C0000B5802B06D05A1C226089
:10547000E418267180BCB846F0BD0F4B1D68002DA6
:1054800016D00B1D98460D4F02E02D69002D0FD050
:105490002B68002BF9D03B68002B01D0AB42F4D134
:1054A000280041462268FFF78FFF2D69002DEFD1BC
:1054B00001220023DBE7C046043500201035002020
:1054C000F0B5DE4657464E464546E0B585B0170076
:1054D0001C0006000D00FDF76BFC0023314A12187A
:1054E0004B41802109068B4202D301222E4B5242AE
:1054F0002E4908008A4614F09FFF01906B1C03D1CF
:10550000300014F0CDFD0500002C26D0284B984625
:10551000284B1C68002C15D0002F21D1264F02E00B
:105520002469002C0ED02368002BF9D03B68002B97
:1055300001D09C42F4D120002A003100C0472469E8
:10554000002CF0D1019B002B28D1280005B0F0BC25
:10555000BB46B246A946A046F0BD184B9846D7E7D1
:10556000154B994602ABDF1D0A239B4602E02469D6
:10557000002CE7D02368002BF9D04B461B68002B8A
:1055800001D0A342F3D12A0031002000C0475B467E
:105590000122390020003B70C047E8E7504614F074
:1055A0000BFFD2E740420F00FFFFFF7FA018002053
:1055B000C95300100435002010350020B9530010E5
:1055C0000A4A1368002B05D10CE01A001B6910323F
:1055D000002B07D09842F8D1002902D1036913604B
:1055E000016170470029FCD01060FAE70435002003
:1055F00010B500F003FB10BDF0B5CE46474680B5B0
:1056000083B06B460600DD1D2870FDF7D1FB00233B
:105610001A4A12184B41802109068B4202D30122FB
:10562000174B524217490800884614F005FF164BE5
:1056300081461C68002C14D0144F02E02469002C11
:105640000FD02368002BF9D03B68002B01D09C427F
:10565000F4D1200001222900FFF7B6FE2469002CB6
:10566000EFD14B46002B05D1300003B0C0BCB9468A
:10567000B046F0BD404614F09FFEF5E740420F00F3
:10568000FFFFFF7FA0180020043500201035002008
:1056900070B5040014F004FD01230100050001228F
:1056A0002000FFF70DFF084B1C68002C06D0636834
:1056B000002B05D098472469002CF8D1280070BD34
:1056C0002469002CF3D1F9E704350020F0B5CE466B
:1056D000474680B5A3B004000D00FDF769FB002329
:1056E000294A12184B41802109068B4202D301221C
:1056F000264B5242264F380014F09EFE002306002F
:10570000019322002B00234801A9FFF7F7FD019B1D
:105710008046002B14D1204B1C68002C06D06368F7
:10572000002B0BD098472469002CF8D1002E25D1EE
:10573000404623B0C0BCB946B046F0BD2469ECE792
:10574000154B1D689946002D1CD0144C02E02D69A4
:10575000002D0FD02B68002BF9D02368002B01D02F
:10576000AB42F4D12800019A02A9FFF72DFE2D6962
:10577000002DEFD14B4601951C68CEE7380014F0A0
:105780001BFED5E70195D1E740420F00FFFFFF7FE9
:10579000A01800205D5400100435002010350020B2
:1057A0000FB400B583B004A901C90191FFF78EFFC2
:1057B00003B008BC04B018477047C0460022014B34
:1057C0001A707047C5E300204B790020FF2B0BD1E6
:1057D0008B79002B08D1CB79012B05D1082A03D96D
:1057E000024B8A7809301A707047C046C5E3002022
:1057F0000120704710B5012901D0012010BD1349C7
:105800005379107909781B02034300209942F5D19E
:105810005378012B08D0022BF0D100206422002104
:10582000FDF726FC0120E9E7D37891781B021943A4
:10583000DB0507D54A0A100001231A407E331940C0
:10584000FDF79EFC01204A0A4042F5E7C5E300202F
:105850000048704794CE011070B505001400012077
:10586000012909D153780020012B05D163791279E0
:105870001B021343072B00D070BD21002800024AF1
:105880009F3301F051FAF7E7ECCD011001230370CB
:1058900000487047CCCD01104B780A781B021343A7
:1058A0008A7810B512041A43CB781B06134396224C
:1058B000D200934200D010BD0022012011004042CE
:1058C000FDF75EFC024B1860024B19607047C04642
:1058D000302600203426002010B5024B1878FCF743
:1058E00029FB10BDC6E30020154B70B51A68002ACD
:1058F00022D0EFF3108172B610680028FCD0BFF3FD
:105900005F8F00200F4A596010701B68BFF35F8FD4
:10591000186081F31088002400250B4E3078FCF7C6
:10592000FDFA002804D1002400252900200070BDC4
:105930003078FCF7FFFAF8E7FA240025A400ECE73A
:1059400084A30020C8E30020C6E3002070B5040053
:1059500000200E0001F000FB002836D0002001F0EE
:1059600013FB002831D0FDF723FA0023184A121840
:105970004B41802109068B4216D2164D280014F0A7
:105980005BFD002821D0002001F0E6FA00280FD1AD
:1059900001200021404200F0FBFC03246442280067
:1059A00014F00AFD200070BD01220B4B5242E4E7C7
:1059B000002001F0E9FA0028EAD02100320000209E
:1059C00001F0EEFA041EEAD1E7E703246442E9E7B6
:1059D00040420F0060E30020FFFFFF7F10B5FDF79E
:1059E000E7F900230E4A12184B41802109068B4229
:1059F00002D301220B4B52420B4C200014F01CFD31
:105A000000280CD001200021404200F0C1FC002001
:105A100001F012FB0028F5D1200014F0CDFC10BDE0
:105A200040420F00FFFFFF7F60E30020F8B5DE4635
:105A3000574680B505000C00FDF7BAF90023374A38
:105A400012184B41802109068B4202D30122344BAC
:105A50005242344908008A4614F0EEFC002803D173
:105A6000C0BCBB46B246F8BD002001F075FA002864
:105A70004AD00026002C43DD2B4B9B4614E0A9198D
:105A8000002001F015FB070001200021404200F03A
:105A90007FFC002001F0D0FAFDF78AF9224BF619BD
:105AA00018605960B4422BDD002001F021FBA71BD8
:105AB0000200B84200DD3A00002AE0D101200021B6
:105AC000404200F065FC002001F0B6FA002001F031
:105AD00043FA002814D0002001F00AFB0028E1D18D
